:020000000000fe
:020001000ff3fb
:020002000fe706
:020003000fda12
:020004000fce1d
:020005000fc129
:020006000fb534
:020007000fa840
:020008000f9c4b
:020009000f8f57
:02000a000f8263
:02000b000f766e
:02000c000f697a
:02000d000f5d85
:02000e000f5091
:02000f000f449c
:020010000f37a8
:020011000f2bb3
:020012000f1ebf
:020013000f12ca
:020014000f05d6
:020015000ef9e2
:020016000eeded
:020017000ee0f9
:020018000ed404
:020019000ec710
:02001a000ebb1b
:02001b000eae27
:02001c000ea232
:02001d000e963d
:02001e000e8949
:02001f000e7d54
:020020000e715f
:020021000e646b
:020022000e5876
:020023000e4c81
:020024000e3f8d
:020025000e3398
:020026000e27a3
:020027000e1bae
:020028000e0fb9
:020029000e02c5
:02002a000df6d1
:02002b000deadc
:02002c000ddee7
:02002d000dd2f2
:02002e000dc6fd
:02002f000dba08
:020030000dae13
:020031000da21e
:020032000d9629
:020033000d8a34
:020034000d7e3f
:020035000d724a
:020036000d6655
:020037000d5a60
:020038000d4e6b
:020039000d4375
:02003a000d3780
:02003b000d2b8b
:02003c000d1f96
:02003d000d14a0
:02003e000d08ab
:02003f000cfcb7
:020040000cf1c1
:020041000ce5cc
:020042000cd9d7
:020043000ccee1
:020044000cc2ec
:020045000cb7f6
:020046000cac00
:020047000ca00b
:020048000c9515
:020049000c8920
:02004a000c7e2a
:02004b000c7334
:02004c000c683e
:02004d000c5c49
:02004e000c5153
:02004f000c465d
:020050000c3b67
:020051000c3071
:020052000c257b
:020053000c1a85
:020054000c0f8f
:020055000c0499
:020056000bf9a4
:020057000beeae
:020058000be4b7
:020059000bd9c1
:02005a000bcecb
:02005b000bc3d5
:02005c000bb9de
:02005d000baee8
:02005e000ba4f1
:02005f000b99fb
:020060000b8f04
:020061000b840e
:020062000b7a17
:020063000b7020
:020064000b652a
:020065000b5b33
:020066000b513c
:020067000b4745
:020068000b3d4e
:020069000b3357
:02006a000b2960
:02006b000b1f69
:02006c000b1572
:02006d000b0b7b
:02006e000b0184
:02006f000af78e
:020070000aed97
:020071000ae49f
:020072000adaa8
:020073000ad0b1
:020074000ac7b9
:020075000abdc2
:020076000ab4ca
:020077000aabd2
:020078000aa1db
:020079000a98e3
:02007a000a8feb
:02007b000a86f3
:02007c000a7dfb
:02007d000a7304
:02007e000a6a0c
:02007f000a6114
:020080000a591b
:020081000a5023
:020082000a472b
:020083000a3e33
:020084000a353b
:020085000a2d42
:020086000a244a
:020087000a1c51
:020088000a1359
:020089000a0b60
:02008a000a0367
:02008b0009fa70
:02008c0009f277
:02008d0009ea7e
:02008e0009e285
:02008f0009da8c
:0200900009d293
:0200910009ca9a
:0200920009c2a1
:0200930009baa8
:0200940009b2af
:0200950009abb5
:0200960009a3bc
:02009700099bc3
:020098000994c9
:02009900098cd0
:02009a000985d6
:02009b00097edc
:02009c000976e3
:02009d00096fe9
:02009e000968ef
:02009f000961f5
:0200a000095afb
:0200a100095301
:0200a200094c07
:0200a30009450d
:0200a400093f12
:0200a500093818
:0200a60009311e
:0200a700092b23
:0200a800092429
:0200a900091e2e
:0200aa00091734
:0200ab00091139
:0200ac00090b3e
:0200ad00090543
:0200ae0008ff49
:0200af0008f94e
:0200b00008f353
:0200b10008ed58
:0200b20008e75d
:0200b30008e162
:0200b40008dc66
:0200b50008d66b
:0200b60008d070
:0200b70008cb74
:0200b80008c678
:0200b90008c07d
:0200ba0008bb81
:0200bb0008b685
:0200bc0008b189
:0200bd0008ac8d
:0200be0008a791
:0200bf0008a295
:0200c000089d99
:0200c10008989d
:0200c2000893a1
:0200c300088fa4
:0200c400088aa8
:0200c5000886ab
:0200c6000881af
:0200c700087db2
:0200c8000879b5
:0200c9000874b9
:0200ca000870bc
:0200cb00086cbf
:0200cc000868c2
:0200cd000864c5
:0200ce000861c7
:0200cf00085dca
:0200d0000859cd
:0200d1000856cf
:0200d2000852d2
:0200d300084fd4
:0200d400084bd7
:0200d5000848d9
:0200d6000845db
:0200d7000841de
:0200d800083ee0
:0200d900083be2
:0200da000838e4
:0200db000836e5
:0200dc000833e7
:0200dd000830e9
:0200de00082deb
:0200df00082bec
:0200e0000828ee
:0200e1000826ef
:0200e2000824f0
:0200e3000821f2
:0200e400081ff3
:0200e500081df4
:0200e600081bf5
:0200e7000819f6
:0200e8000817f7
:0200e9000815f8
:0200ea000814f8
:0200eb000812f9
:0200ec000810fa
:0200ed00080ffa
:0200ee00080dfb
:0200ef00080cfb
:0200f000080bfb
:0200f100080afb
:0200f2000809fb
:0200f3000808fb
:0200f4000807fb
:0200f5000806fb
:0200f6000805fb
:0200f7000804fb
:0200f8000803fb
:0200f9000803fa
:0200fa000802fa
:0200fb000802f9
:0200fc000802f8
:0200fd000801f8
:0200fe000801f7
:0200ff000801f6
:020100000000fd
:00000001FF
