:020000000000fe
:020001000fce20
:020002000f9c51
:020003000f6983
:020004000f37b4
:020005000f05e5
:020006000ed416
:020007000ea247
:020008000e7177
:020009000e3fa8
:02000a000e0fd7
:02000b000dde08
:02000c000dae37
:02000d000d7e66
:02000e000d4e95
:02000f000d1fc3
:020010000cf1f1
:020011000cc21f
:020012000c954b
:020013000c6877
:020014000c3ba3
:020015000c0fce
:020016000be4f9
:020017000bb923
:020018000b8f4c
:020019000b6575
:02001a000b3d9c
:02001b000b15c3
:02001c000aedeb
:02001d000ac710
:02001e000aa135
:02001f000a7d58
:020020000a597b
:020021000a359e
:020022000a13bf
:0200230009f2e0
:0200240009d2ff
:0200250009b21e
:0200260009943b
:02002700097658
:02002800095a73
:02002900093f8d
:02002a000924a7
:02002b00090bbf
:02002c0008f3d7
:02002d0008dced
:02002e0008c602
:02002f0008b116
:02003000089d29
:02003100088a3b
:0200320008794b
:0200330008685b
:02003400085969
:02003500084b76
:02003600083e82
:0200370008338c
:02003800082896
:02003900081f9e
:02003a000817a5
:02003b000810ab
:02003c00080baf
:02003d000807b2
:02003e000803b5
:02003f000802b5
:020040000000be
:00000001FF
